:020000001728BF
:0800080005289300030E92008D
:100010008B1C0F28861C11280618112864280B1920
:100020002728120E8300930E130E8B100900572001
:100030008B161C208B171B28A8019601A901AA0169
:100040008316003085008312093085000800A80857
:1000500003194B28A81F3A28291C3128AA0803197C
:100060004A28AA0803192914AA039603A813A80B5F
:10007000A817452829183F282A0A03194A282A0AB6
:1000800003192910AA0AA803960A16084D208312FC
:1000900085004B28A8010B1111280739820701346C
:1000A00003340234063404340C34083409348C012B
:1000B000831696308100861406148312861006106B
:1000C0008E018B010B1608007D200C1878288C18E7
:1000D00064280C110F180C150F100F08D63A031DC9
:1000E00076280314EE200C19B9289F280310EE205F
:1000F00083168B108614061411288D010830910088
:10010000831286188128831686148312861C8628FB
:100110000618922803108F0D861C9A28061C8C281E
:100120000C14080003148F0D861C9A2806189428B6
:100130008C140800910B86288316861008007D20F9
:100140000F088E000C1878288C1864280314EE20F1
:100150007D200C1878288C1864280314EE200E08D3
:100160000739283E84000F08800083168614061481
:1001700011288E010E080739283E840000088F00E0
:100180008E0AC8208C187828FB208C1D7828BA2865
:100190000F089000083091008D018316900D031810
:1001A000DC280610000086148312861CD5288618C9
:1001B000D72883168610E8280614000086148312B8
:1001C000861CE028061CEC288618E2288316861078
:1001D000910BCD28061408008C1408008316031810
:1001E000061086148312861CF3288618F5288316B9
:1001F000861006140800831686148312861CFE28B7
:100200008C1506188C118618032983168610080091
:00000001FF
