:020000001728BF
:0800080005289300030E92008D
:100010008B1C0F28861C1128061811285A280B192A
:100020002728120E8300930E130E8B1009004D200B
:100030008B161C208B171B28A80196016430A90081
:100040008316003085008312093085000800A80857
:1000500003194128A81F3528A90803194028A90316
:100060009603A813A80BA8173B28290A03194028B0
:10007000A90AA803960A160843208312850041287E
:10008000A8010B1111280739820701340334023407
:10009000063404340C34083409348C018316963049
:1000A0008100861406148312861006108E018B01BF
:1000B0000B16080073200C186E288C185A280C1187
:1000C0000F180C150F100F08D03A031D6C280314DD
:1000D000E4200C19AF2895280310E42083168B1018
:1000E0008614061411288D01083091008312861899
:1000F0007728831686148312861C7C280618882885
:1001000003108F0D861C9028061C82280C140800F2
:1001100003148F0D861C902806188A288C1408005A
:10012000910B7C2883168610080073200F088E0020
:100130000C186E288C185A280314E42073200C180D
:100140006E288C185A280314E4200E080739283E1C
:1001500084000F08800083168614061411288E016F
:100160000E080739283E840000088F008E0ABE2042
:100170008C186E28F1208C1D6E28B0280F08900076
:10018000083091008D018316900D0318D2280610B7
:10019000000086148312861CCB288618CD2883166F
:1001A0008610DE280614000086148312861CD628CA
:1001B000061CE2288618D82883168610910BC328BF
:1001C000061408008C140800831603180610861401
:1001D0008312861CE9288618EB28831686100614DD
:1001E0000800831686148312861CF4288C150618C2
:0C01F0008C118618F92883168610080070
:00000001FF
